:020000040000FA
:0600000088EF16F012006B
:0608000088EF16F0120063
:0608080048EF12F012009F
:0608180093EF12F0120044
:06082A0002006B2D00002E
:10083000A400000007000000602D000086000000FA
:040840000B000000A9
:0C084400D9CFE6FFE1CFD9FFE652A09427
:100850000F015F6B626A160E616E9F0E5B6F7B0EFF
:10086000606E648C5C6B010EE66EE66AE66A540E9E
:10087000E66E0F0EE66E24EC15F0196E050EE15EC5
:100880001950649CDF6ADF50196E1A6A080E195CF1
:10089000000E1A5810E2DF50040DF3CFE9FFF4CF39
:1008A000EAFF000EE926020EEA22EE6AEE6AEE6A1E
:1008B000EE6ADF2AE8D70F01160E536F62A602D048
:1008C0006296FCD70001736B786B796B7A6B6498D6
:1008D000DF6A020EDF5C18E2EA6ADF34FE0BEA36FA
:1008E000E96E6B0EE926000EEA22EE6AED6AEA6A0C
:1008F000DF34FE0BEA36E96E670EE926000EEA22C7
:10090000EE6AED6ADF2AE5D70001080E6B6F020E72
:100910006C6F616B606BE552E552E7CFD9FF120057
:10092000D9CFE6FFE1CFD9FFE6520001600507E12C
:1009300064BA05D0626A60806088020E606F62509F
:10094000040B05E06050040B02E06294BCD864A282
:1009500002D0A19487D06250010B16E06050010BC9
:1009600013E070DFD08EA284A084F28E0001040E0A
:10097000606F0201200E026F020E036F080E016FFE
:10098000006B8C0E001362906250100B05E06050FB
:10099000100B02E086D862986250400B13E0605062
:1009A000400B10E0010EE66EE66A000EE66EE66AA7
:1009B000730EE66EE66A07EC13F0196E060EE15E42
:1009C0001950629C6250200B04E06050200B01E043
:1009D0004ED86250020B14E06050020B11E0010E81
:1009E000E66EE66A000EE66EE66AE6687F0EE66E82
:1009F00007EC13F0196E060EE15E19500F015F6BE4
:100A0000040E0001E76E6019E8AE02D0E73402D0B0
:100A1000E750605D02E2A19425D060A622D0DF6A93
:100A2000040EDF5C1EE262A61BD063CF80F06296EC
:100A3000780E0001801502E15BD810D0000EE66E42
:100A4000E66A800EE66E000EE66E720EE66EE66AEE
:100A500007EC13F0196E060EE15E1950DF2AE0D79D
:100A600000D0A194E552E552E7CFD9FF12000F0163
:100A700053A115D063C0E9FF64C0EAFFEF508008BE
:100A80000DE16BC0E9FF6CC0EAFFEF50840806E19E
:100A900063C0E9FF64C0EAFF8C0EEF6E5391629A67
:100AA0001200608462986482000EE66EE66AE66E6A
:100AB000E66A750EE66EE66A07EC13F0196E060E2E
:100AC000E15E19501200000EE66EE66AE66EE66A16
:100AD000740EE66EE66A07EC13F0196E060EE15E20
:100AE00019506492609462A402D06294FCD7120000
:100AF000D9CFE6FFE1CFD9FFE652FD0E0001801508
:100B00005AE17E0E8015E8407F0B040DF3CF63F0B1
:100B1000F4CF64F0000E6327020E642363C065F017
:100B200064C066F0657563C0E9FF64C0EAFFEF501A
:100B30003C0BE842E8420D083CE163C0E9FF64C0B9
:100B4000EAFF020EE926000EEA22EECF19F0EFCFFF
:100B50001AF0280E191802E1020E1A1828E163C0D3
:100B6000E9FF64C0EAFF020EE926000EEA22200E29
:100B7000EE6E020EED6EDF6ADF50196E1A6A080E15
:100B8000195C000E1A5813E2DF50EA6A280FE96E6A
:100B9000020EEA22EF50E66EDF50EA6A200FE96E9D
:100BA000020EEA22E552E750EF6EDF2AE5D70DD8B4
:100BB00001D02ED805D0FD0E8015040801E14ED8D5
:100BC000E552E552E7CFD9FF12006BC0E9FF6CC0D8
:100BD000EAFFEF50800B05E06BC0E9FF6CC0EAFF55
:100BE000EF6A00016F6B706B746B756B736BB9D8C8
:100BF000000EE66EE66AE66EE66A030EE66EE66AEA
:100C000007EC13F0196E060EE15E195062EF08F062
:100C1000020E0001705D02E1B5DB1FD06FD800014C
:100C200081511AE165C0E9FF66C0EAFFEE52080E85
:100C3000EF6E65C0E9FF66C0EAFF020EE926000E0E
:100C4000EA22200EEE6E020EED6E65C0E9FF66C070
:100C5000EAFF8C0EEF6E01D0816B1200D9CFE6FF58
:100C6000E1CFD9FFE6526BC0E9FF6CC0EAFFEF505D
:100C7000400B01E0010EDF6E00016B75080E605D38
:100C80000DE122C25CFF0F015C51000804E200018B
:100C9000100E606F03D00001040E606F700528E134
:100CA0006BC0E9FF6CC0EAFF020EE926000EEA22E3
:100CB000280EEE6E020EED6EDADA020E00016F5DA6
:100CC00007E16BC0E9FF6CC0EAFF840EEF6E0FD046
:100CD000DF5007E16BC0E9FF6CC0EAFFC80EEF6EA2
:100CE00006D06BC0E9FF6CC0EAFF880EEF6E01D042
:100CF00005D8E552E552E7CFD9FF1200D9CFE6FF7C
:100D0000E1CFD9FF020EE1260001706B6BC0E9FF55
:100D10006CC0EAFFEF6A040E6B19196E6CC01AF012
:100D200019C0DEFF1AC0DDFFDECFE9FFDDCFEAFF2D
:100D3000EF6A78AF0CD07B517C1107E005D07CC006
:100D4000FAFF00017B51F96EFADF0001789F020E75
:100D5000E15C02E2E16AE552E16EE552E7CFD9FFDC
:100D6000120002012051600BE842E842E842E842EA
:100D7000E842000901E058D021510C0A54E00B0A66
:100D800043E00C0A35E0010A26E00B0A22E0020AE1
:100D900020E0030A1CE0080A10E0010A0CE00F0A38
:100DA00008E0030A01E03FD00001738F080E606F76
:100DB0003BD0C7D839D083DB37D00001610E716FCB
:100DC000000E726F7381010E746F738F2DD019D95D
:100DD0002BD02BD829D024510001716F726B620E79
:100DE0007127000E72237381010E746F738F1CD0F4
:100DF0000001738F02012451EA6A620FE96E000E4E
:100E0000EA2222C2EFFF10D0000EE66EE66AE66E1E
:100E1000E66A020EE66EE66A07EC13F0196E060E3D
:100E2000E15E195001D000D01200D9CFE6FFE1CF2A
:100E3000D9FF040EE1260201220510E120511F0B0B
:100E400000090CE10001738F030E0201215D04E132
:100E50000001010E7F6F02D000017F6B0201225161
:100E600066E120511F0B020862E124510F0B0009BB
:100E70005EE00001738F020124BF10D024510F0BDC
:100E8000E96EEA6AD890E936EA36670EE926000E7E
:100E9000EA22EECFDEFFEDCFDDFF0FD024510F0BA6
:100EA000E96EEA6AD890E936EA366B0EE926000E5A
:100EB000EA22EECFDEFFEDCFDDFF030E215D07E17D
:100EC000DECFE9FFDDCFEAFF840EEF6E30D0245194
:100ED0000F0B1A6A530F196E0F0E1A22020E19C049
:100EE000DBFF030E1AC0DBFF020EDBCFE9FF030EB0
:100EF000DBCFEAFFEF9024AF0DD0DECFE9FFDDCFEF
:100F0000EAFFEF6ADF74DECFE9FFDDCFEAFF400ED4
:100F1000EF6E0DD0DECFE9FFDDCFEAFF880EEF6E7A
:100F2000DF74DECFE9FFDDCFEAFFC80EEF6E040EFF
:100F3000E15C02E2E16AE552E16EE552E7CFD9FFFA
:100F40001200800E0201205D5BE10001C00E736F94
:100F500002012351030A34E0010A0EE0030A03E010
:100F60000001736B4DD00001A00E716F280E726FDF
:100F7000120E746F756B44D02251F66EF76AD890DA
:100F8000F636F7365C0EF626290EF7220900F5CF65
:100F900071F00A00F5CF72F0020E0001F76A7125B8
:100FA000F66E7251F7220800F5CF74F0030EF76A5F
:100FB0007125F66E7251F7220800F5CF75F020D03A
:100FC000030E225D1AE22251F66EF76AD890F636C9
:100FD000F7365E0EF626290EF7220900F5CF71F0DE
:100FE0000A00F5CF72F071C0F6FF72C0F7FF08007B
:100FF000F5500001746F756B02D00001736B00D067
:101000001200D9CFE6FFE1CFD9FF020EE12602019F
:10101000286B296B20511F0B020A12E0030A0DE016
:10102000010A01E03BD00001738F02012881000119
:101030007F0502E10201288331D00001738F2ED099
:101040000001738F020124BF10D024510F0BE96EF1
:10105000EA6AD890E936EA36670EE926000EEA22F7
:10106000EECFDEFFEDCFDDFF0FD024510F0BE96E89
:10107000EA6AD890E936EA366B0EE926000EEA22D3
:10108000EECFDEFFEDCFDDFFDECFE9FFDDCFEAFF04
:10109000EF50040B02E0010E286F00D0000173AF87
:1010A00007D0280E716F020E726F7381020E746F7B
:1010B000020EE15C02E2E16AE552E16EE552E7CF41
:1010C000D9FF12006498000173BF4AD078AF28D0CE
:1010D000020E706F6BC0E9FF6CC0EAFFEE52EF6A60
:1010E0006BC0E9FF6CC0EAFFC80EEF6E65C0E9FF98
:1010F00066C0EAFFEE52080EEF6E65C0E9FF66C0FB
:10110000EAFF020EE926000EEA22280EEE6E020E1B
:10111000ED6E65C0E9FF66C0EAFFC80EEF6E1FD036
:1011200065C0E9FF66C0EAFFEE52080EEF6E65C0CB
:10113000E9FF66C0EAFF020EE926000EEA22200E51
:10114000EE6E020EED6E65C0E9FF66C0EAFF8C0E22
:10115000EF6E6BC0E9FF6CC0EAFF840EEF6E86D0C5
:1011600078BF84D0020120AF59D000017451020130
:10117000265D000175510201275904E226C274F070
:1011800027C275F074D80001010E706F65C0E9FFC9
:1011900066C0EAFFEE52080EEF6E65C0E9FF66C05A
:1011A000EAFF020EE926000EEA22200EEE6E020E83
:1011B000ED6E65C0E9FF66C0EAFF800EEF6E816BE1
:1011C00063C0E9FF64C0EAFFEE52080EEF6E63C031
:1011D000E9FF64C0EAFF020EE926000EEA22200EB3
:1011E000EE6E020EED6E63C0E9FF64C0EAFF840E8E
:1011F000EF6E010E816F6BC0E9FF6CC0EAFF020E5B
:10120000E926000EEA22280EEE6E020EED6E6BC08D
:10121000E9FF6CC0EAFFC80EEF6E28D00001020E95
:10122000706F6BC0E9FF6CC0EAFFEE52EF6A6BC0F3
:10123000E9FF6CC0EAFFC80EEF6E65C0E9FF66C04B
:10124000EAFFEE52080EEF6E65C0E9FF66C0EAFFE6
:10125000020EE926000EEA22280EEE6E020EED6E58
:1012600065C0E9FF66C0EAFFC80EEF6E1200D9CF75
:10127000E6FFE1CFD9FF020EE1260001080E745D02
:10128000000E75590EE274C0DEFF75C0DDFF6F51B0
:1012900003E1010E6F6F04D06F0502E1020E6F6F64
:1012A00003D0080EDE6EDD6A6BC0E9FF6CC0EAFF9A
:1012B000EF926BC0E9FF6CC0EAFFEF906BC0E9FFF3
:1012C0006CC0EAFF010EDB50EF126BC0E9FF6CC08F
:1012D000EAFFEE52DFCFEFFF000EDB50745F010E2E
:1012E000DB50755B280E7D6F020E7E6F73B121D0CF
:1012F000D9CFE9FFDACFEAFFEE50ED1019E071C067
:10130000F6FF72C0F7FF712B000E72230800F55034
:10131000E66E7DC0E9FF7EC0EAFF7D2B000E7E23D6
:10132000E552E750EF6EDF06010E01E2DB06E0D783
:101330001FD0D9CFE9FFDACFEAFFEE50ED1018E069
:1013400071C0E9FF72C0EAFF712B000E7223EF50EB
:10135000E66E7DC0E9FF7EC0EAFF7D2B000E7E2396
:10136000E552E750EF6EDF06010E01E2DB06E1D742
:10137000020EE15C02E2E16AE552E16EE552E7CF7E
:10138000D9FF1200D9CFE6FFE1CFD9FF020EE12647
:1013900063C0E9FF64C0EAFFEE52EFCFDFFFDFCFAB
:1013A00019F019500001795D000E7A5902E279C0F6
:1013B000DFFFDF50196E1A6A1950795D796F1A5084
:1013C0007A597A6F010EDB6ADF50F36E010EDBCFC4
:1013D000F4FFF350F45C16E2010EDB50EA6A280FCA
:1013E000E96E020EEA22EF50E66E76C0E9FF77C0A2
:1013F000EAFF762B000E7723E552E750EF6E010EE1
:10140000DB2AE2D7000ED8807955000E7A5528E203
:1014100065C0E9FF66C0EAFFEE52080EEF6E65C0D8
:10142000E9FF66C0EAFF020EE926000EEA22280E56
:10143000EE6E020EED6E63C0E9FF64C0EAFFEF508E
:10144000400B07E165C0E9FF66C0EAFFC80EEF6E1A
:1014500006D065C0E9FF66C0EAFF880EEF6E25D0B2
:1014600065C0E9FF66C0EAFFEE52080EEF6E65C088
:10147000E9FF66C0EAFF020EE926000EEA22200E0E
:10148000EE6E020EED6E65C0E9FF66C0EAFF840EE7
:10149000EF6E7B517C1107E005D07CC0FAFF0001A4
:1014A0007B51F96EFADF0001789F020EE15C02E2E7
:1014B000E16AE552E16EE552E7CFD9FF1200D9CFDC
:1014C000E6FFE1CFD9FFE6520001738F010EE66E11
:1014D000E66AE66A540EE66E0F0EE66E24EC15F030
:1014E000196E050EE15E1950DF6ADF50196E1A6A37
:1014F000080E195C000E1A5810E2DF50040DF3CFED
:10150000E9FFF4CFEAFF000EE926020EEA22EE6AB6
:10151000EE6AEE6AEE6ADF2AE8D7648C010EE66EA8
:10152000E66AE66A620EE66E000EE66E24EC15F0E0
:10153000196E050EE15E1950649C0001080E6B6F78
:10154000020E6C6F000E636F020E646F63C065F075
:1015500064C066F022C261F0615103E1100E606F59
:1015600013D0010EE66EE66A610EE66E000EE66EC0
:10157000010EE66EE66A07EC13F0196E060EE15EE8
:1015800019500001200E606FE552E552E7CFD9FFF8
:101590001200D9CFE6FFE1CFD9FF020EE126000EFF
:1015A000DE6E020EDD6EFD0EDB50E8241B6EFE0EBD
:1015B000DB50040DF3501B24040DF350196E1A6A0E
:1015C000020E0F0B05E0D8901A321932E806FBE143
:1015D000D89019361A36D89019361A36D9CFE9FF6D
:1015E000DACFEAFF1950EE261A50ED22DECFE9FFDE
:1015F000DDCFEAFFEF9EFD0EDB500FE1FE0EEA6A43
:10160000DB34FE0BEA36E96E670EE926000EEA22AD
:10161000DECFEEFFDDCFEDFF0ED0FE0EEA6ADB344B
:10162000FE0BEA36E96E6B0EE926000EEA22DECFEB
:10163000EEFFDDCFEDFFDECFE9FFDDCFEAFFEF9C70
:10164000DECFE9FFDDCFEAFF040EE926000EEA2235
:10165000EF8C020EE15C02E2E16AE552E16EE552D6
:10166000E7CFD9FF1200D9CFE6FFE1CFD9FF020EB5
:10167000E126FE0EDB501A6A530F196E0F0E1A2266
:1016800019C0DEFF1AC0DDFFDECFE9FFDDCFEAFFC4
:10169000FD0EDBCFEFFFDBA407D0E66AFE0EDBCF4B
:1016A000E6FF77DFE552E552FD0EDBA208D0010E22
:1016B000E66EFE0EDBCFE6FF6CDFE552E552020E72
:1016C000E15C02E2E16AE552E16EE552E7CFD9FF63
:1016D0001200D9CFE6FFE1CFD9FF020EE126FE0EC0
:1016E000DB5020E165C0E9FF66C0EAFFEE52080E5C
:1016F000EF6E65C0E9FF66C0EAFF020EE926000E44
:10170000EA22200EEE6E020EED6E65C0E9FF66C0A5
:10171000EAFF8C0EEF6E6BC0E9FF6CC0EAFF840E2F
:10172000EF6E3DD0FD0EDB50E8241B6EFE0EDB504D
:10173000040DF3501B24040DF3CF19F0F4CF1AF06D
:10174000000E1926020E1A2219C0DEFF1AC0DDFF94
:10175000840E196EDECFE9FFDDCFEAFF1950EF12DC
:10176000FD0EDB50E8241B6EFE0EDB50040DF35023
:101770001B24010F040DF3CF19F0F4CF1AF0000E63
:101780001926020E1A2219C0DEFF1AC0DDFF840ED0
:10179000196EDECFE9FFDDCFEAFF1950EF12020E1E
:1017A000E15C02E2E16AE552E16EE552E7CFD9FF82
:1017B0001200D9CFE6FFE1CFD9FF020EE126FD0EE0
:1017C000DB500FE0FE0EEA6ADB34FE0BEA36E96E10
:1017D0006B0EE926000EEA22EECFDEFFEDCFDDFF35
:1017E0000ED0FE0EEA6ADB34FE0BEA36E96E670EB7
:1017F000E926000EEA22EECFDEFFEDCFDDFFD9CFE6
:10180000E9FFDACFEAFFEE50ED1003E1F36AF46A84
:1018100049D0DECFE9FFDDCFEAFF020EE926000E58
:10182000EA22FB0EDBCFEEFFFC0EDBCFEDFFDECFBF
:10183000E9FFDDCFEAFFEE52FA0EDBCFEFFF400EFD
:10184000196EDECFE9FFDDCFEAFF1950EF16880EE3
:10185000196EDECFE9FFDDCFEAFF1950EF12FD0E62
:10186000DB500CE0FE0EEA6ADB34FE0BEA36E96E72
:101870006B0EE926000EEA22EF740BD0FE0EEA6A28
:10188000DB34FE0BEA36E96E670EE926000EEA222B
:10189000EF74DECF19F0DDCF1AF019C0F3FF1AC0D4
:1018A000F4FF00D0020EE15C02E2E16AE552E16E73
:1018B000E552E7CFD9FF1200D9CFE6FFE1CFD9FF3C
:1018C00064A84ED0FE0EEA6ADB34FE0BEA36E96EFF
:1018D0006B0EE926000EEA22EE50EFCFEAFFE96E2A
:1018E000400EEE16EE6AEE6AEE6AFE0EEA6ADB342F
:1018F000FE0BEA36E96E6B0EE926000EEA22EE5088
:10190000EFCFEAFFE96EEE7CFE0EEA6ADB34FE0BF7
:10191000EA36E96E6B0EE926000EEA22EF74400EFD
:10192000196EFE0EEA6ADB34FE0BEA36E96E6B0EC8
:10193000E926000EEA22EE50EFCFEAFFE96E1950D9
:10194000EF16FE0EEA6ADB34FE0BEA36E96E6B0E2A
:10195000E926000EEA22EE50EFCFEAFFE96EEF7CB7
:10196000E552E7CFD9FF1200646A606A0001606B3C
:1019700000D012000001605114E1646A606A160E22
:10198000616E0F019F0E5B6F7B0E606ED08EA28426
:10199000A084F28E64B602D06486FCD70001010EEA
:0419A000606F120062
:0C19A400D9CFE6FFE1CFD9FF8B9CE668AD
:1019B000F6EC15F0E552FE0EDB504009E66EF6EC53
:1019C00015F0E552FA0EDBCF19F0FB0EDBCF1AF063
:1019D000FC0EDBCF1BF0FD0EDBCF1CF0180ED890F9
:1019E0001C321B321A321932E806F9E11950E66E40
:1019F000F6EC15F0E552FA0EDBCF19F0FB0EDBCF5B
:101A00001AF0FC0EDBCF1BF0FD0EDBCF1CF0100E2E
:101A1000D8901C321B321A321932E806F9E11950FB
:101A2000E66EF6EC15F0E552FA0EDBCF19F0FB0E80
:101A3000DBCF1AF0FC0EDBCF1BF0FD0EDBCF1CF072
:101A4000080ED8901C321B321A321932E806F9E11E
:101A50001950E66EF6EC15F0E552FA0EDBCFE6FF14
:101A6000F6EC15F0E552950EE66EF6EC15F0E55243
:101A7000E668F6EC15F0E5522BEC16F000D0E552D6
:101A8000E7CFD9FF1200D9CFE6FFE1CFD9FF030E90
:101A9000E126DF6AD950FA0FE96EFF0EDA20EA6E0E
:101AA000EECFE6FFEECFE6FFEECFE6FFEFCFE6FFAD
:101AB000FE0EDBCFE6FF76DF196E050EE15E1950F4
:101AC000E76E010EE7CFDBFFDB500DE0DF2AFF0EF4
:101AD000DF5C02E3010E21D02BEC16F0E76E010E65
:101AE000E7CFDBFFF1D7DF6AFF0EDF5C14E22BEC00
:101AF00016F0E76E020EE7CFDBFFDB50FE0802E1D7
:101B0000000E0BD0020EDB50FF0803E0020EDB508C
:101B100004D0DF2AE9D7800E00D0196E030EE15CF5
:101B200002E2E16AE552E16E1950E552E7CFD9FFD2
:101B30001200D9CFE6FFE1CFD9FF150EE126E66A04
:101B4000E66AE66AE66A090EE66E9DDF196E050E24
:101B5000E15E1950000902E0010ECFD0DF6ADF50CC
:101B6000196E1A6A100E195C000E1A5814E22BEC4A
:101B700016F0E66ED950030F196EDACF1AF0DF5067
:101B80000F011924E96E000E1A20EA6EE552E750A3
:101B9000EF6EDF2AE4D7090EDB50030BE66ED95057
:101BA000130FE96EDACFEAFFE552E750EE6EED6A09
:101BB000D950130FE96EDACFEAFFEE50ED6EEF6AFF
:101BC0000A0EDB50196E1A6AD950130FE96EDACF7C
:101BD000EAFF1950EE121A50ED12D950130FE96EA8
:101BE000DACFEAFF020ED890EE36ED36E806FBE1DA
:101BF000060E1B6E0B0EDB501BC0E7FFE75204E026
:101C0000E8427F0BE706FCE1196E1A6AD950130F00
:101C1000E96EDACFEAFF1950EE121A50ED12130EE8
:101C2000DBCF9BF0140EDBCF9CF0010E00019B2755
:101C3000000E9C239D6B9E6B0D0EDB44010B196EF9
:101C40000C0EDB50030BE8241910020F1F0B08E0E9
:101C50000001D8909B379C379D379E37E806F9E105
:101C6000010E00019F6FA06B060E1A6E100EDB5066
:101C70001AC0E7FFE75204E0E8427F0BE706FCE109
:101C8000196E0F0EDB50030B040DF3501910E850C2
:101C900006E00001D8909F37A037E806FBE1010E6F
:101CA0000001A16FA26B080EDB500F0BE85006E09D
:101CB0000001D890A137A237E806FBE10D0EDBAC9E
:101CC0000FD0066A020E076E9FC00BF0A0C00CF08A
:101CD00042EC16F006C0A3F00001450EA36F0BD036
:101CE000DB503F0BE8240001A36F0E0EDBBEA32BDD
:101CF000A32B120EA36F000E00D0196E150EE15C1F
:101D000002E2E16AE552E16E1950E552E7CFD9FFF0
:101D10001200D9CFE6FFE1CFD9FFE6528B8C949C1D
:101D20008B8CE66AE66A020EE66E76EC15F0E552FA
:101D3000E552E552DF6A0A0EDF5C06E2E668F6EC81
:101D400015F0E552DF2AF7D7DF6AE66AE66AE66A47
:101D5000E66AE66A27DE196E050EE15E1950010893
:101D600007E0DF2AFF0EDF5C02E3010E43D0EDD770
:101D7000E66AE66AE66A76EC15F0E552E552E55267
:101D8000DF6AE66AE66AE66AE66A370EE66E0ADE49
:101D9000196E050EE15E1950FF0802E1030E2AD00C
:101DA000E66AE66AE66AE66A290EE66EFBDD196E09
:101DB000050EE15E1950000916E0DF2AFF0EDF5C18
:101DC00002E3020E17D0E66AE66AE66AE66A370EB2
:101DD000E66EE8DD196E050EE15E1950FF0802E1BE
:101DE000030E08D0DDD7A5DE000902E0040E02D004
:101DF000000E00D0E552E552E7CFD9FF1200D9CF4F
:101E0000E6FFE1CFD9FF0001A491A495A493A96BAB
:101E1000AA6BD950FB0FE96EFF0EDA20EA6E0001C3
:101E20009B51EE5C9C51EE589D51EE589E51EE58E0
:101E300001E38AD0FB0EDBCFA5F0FC0EDBCFA6F0D2
:101E4000FD0EDBCFA7F0FE0EDBCFA8F0FA0EDB0411
:101E50003AE1A1C01DF0A2C01EF01F6A206A1DC099
:101E600004F01EC005F01FC006F020C007F0FB0EF6
:101E7000DBCF09F0FC0EDBCF0AF0FD0EDBCF0BF061
:101E8000FE0EDBCF0CF03EEC15F000C019F001C0E7
:101E90001AF002C01BF003C01CF019C0E6FF1AC004
:101EA000E6FF1BC0E6FF1CC0E6FF110EE66EEBDD91
:101EB000216E050EE15E2150000902E0010E46D0C0
:101EC0000001A4853DD0FA0EDB50020839E19FC025
:101ED0001DF0A0C01EF01F6A206A1DC004F01EC0C5
:101EE00005F01FC006F020C007F0FB0EDBCF09F0A5
:101EF000FC0EDBCF0AF0FD0EDBCF0BF0FE0EDBCFCE
:101F00000CF03EEC15F000C019F001C01AF002C050
:101F10001BF003C01CF019C0E6FF1AC0E6FF1BC08F
:101F2000E6FF1CC0E6FF180EE66EADDD216E050E65
:101F3000E15E2150000902E0020E08D00001A483F6
:101F40000001A481000E02D0030E00D0E552E7CFBD
:101F5000D9FF1200D9CFE6FFE1CFD9FFE552E7CF95
:101F6000D9FF1200D9CFE6FFE1CFD9FFE552E7CF85
:101F7000D9FF12000001A491A495A493A96BAA6BA8
:021F800012004D
:0E1F8200D9CFE6FFE1CFD9FFA66AFE0EDB50F5
:101F9000A96EA680A85000D0E552E7CFD9FF120065
:101FA000D9CFE6FFE1CFD9FFFE0EDB50A96EFD0EC3
:101FB000DB50A86E040EA66E550EA76EAA0EA76E75
:101FC000A682A6B2FED7E552E7CFD9FF1200D9CF3D
:101FD000E6FFE1CFD9FFE652766A7E6A7F6A829099
:101FE0009480829294828294948482969486AAECBD
:101FF00015F089EC0EF0D08EF28EF28CE552E5529F
:10200000E7CFD9FF12001E0EE66E010EE66E33EC2E
:102010000BF0E552E55200018A6B200EE66E700E61
:10202000E66E020EE66EE66A010EE66ED9EC0BF085
:10203000196E050EE15E1950F3CF86F0F4CF87F0EC
:10204000200EE66E900EE66E020EE66EE66A010E59
:10205000E66ED9EC0BF0196E050EE15E1950F3CF68
:1020600088F0F4CF89F00001906B0001300EAD6F65
:10207000020EAE6F1200200E0001E76E6019E8AE8E
:1020800002D0E73402D0E750605D03E36450020BF6
:1020900001E001D001D81200D9CFE6FFE1CFD9FF8E
:1020A000020EE12600018A51E96EEA6AD890E9360B
:1020B000EA36860EE926000EEA22EE50ED1002E125
:1020C000000E13D000018A51E96EEA6AD890E93611
:1020D000EA36860EE926000EEA22EE50EFCFEAFF3E
:1020E000E96EEF50800B01E0010E000901E0C6D15E
:1020F000DF6A00018A51200DF3CFABF0F4CFACF0D2
:10210000700E0001AB27020E0001AC2300018A51C2
:10211000E96EEA6AD890E936EA36860EE926000EBC
:10212000EA22EE50EFCFEAFFE96EEE52EFCF8BF0EE
:10213000ABC0E9FFACC0EAFFEF50E76E010EE7CF9E
:10214000DBFF00010A0EB16F010EDB50FF0A01E157
:10215000F4D0FA0A01E1B3D0010A71E0440A10E0B8
:10216000710A01E000D10001320EB16FADC0E9FF8C
:10217000AEC0EAFF010EDBCFEFFF010EDF6EF5D040
:10218000ADC0E9FFAEC0EAFF9BC0EEFF9CC0EEFF12
:102190009DC0EEFF9EC0EEFFADC0E9FFAEC0EAFFFE
:1021A000040EE926000EEA22A1C0EEFFA2C0EDFF58
:1021B000ADC0E9FFAEC0EAFF060EE926000EEA2236
:1021C0009FC0EEFFA0C0EDFF0001A351E66EADC0C1
:1021D000E9FFAEC0EAFF080EE926000EEA22E5524A
:1021E000E750EE6EED6A100EDF6EBFD0ADC0E9FFB6
:1021F000AEC0EAFF010EDBCFEFFF1F0EE66EE66A10
:10220000F00E196E2C0E1A6E1B6A19C0E6FF1AC06A
:10221000E6FF1BC0E6FF010E00011D6AAD251C6E26
:10222000AE511D221CC0E6FF1DC0E6FF01EC15F0FB
:102230001E6E070EE15E1E50200EDF6E96D0ABC004
:10224000E9FFACC0EAFFEF50E66EADC0E9FFAEC0FB
:10225000EAFFE552E750EF6E146AABC0E9FFACC08D
:10226000EAFF010EEB50145C26E2ABC0E9FFACC004
:10227000EAFF020EE926000EEA22EF501424E66E71
:1022800080DEE552E66EADC0E9FFAEC0EAFF050EA6
:10229000E926000EEA22E9CF19F0EACF1AF014502D
:1022A0000F011924E96E000E1A20EA6EE552E7507C
:1022B000EF6E142AD2D7050E1424DF6E56D0ABC0B1
:1022C000E9FFACC0EAFFEF50E66EADC0E9FFAEC07B
:1022D000EAFFE552E750EF6E146AABC0E9FFACC00D
:1022E000EAFF010EEB50145C25E2ABC0E9FFACC085
:1022F000EAFF050EE926000EEA22E9CF19F0EACF3F
:102300001AF014500F011924E96E000E1A20EA6E1B
:10231000EF50E66EABC0E9FFACC0EAFF020EE92663
:10232000000EEA22EF501424E66E3ADEE552E55242
:10233000142AD3D7010EDF6E18D064961068116886
:10234000126A136A10681168126A136A1050111029
:102350001210131006E01006000E115A125A135AEA
:10236000F5D7FF0002D0DF6A00D0200EE66E000134
:102370008A51200DF3CF1BF0F4CF1CF0700E1B26FA
:10238000020E1C221BC0E6FF1CC0E6FFE66A010E1F
:10239000E66ED9EC0BF01D6E050EE15E1D50F3CF1D
:1023A00019F0F4CF1AF000018A51E96EEA6AD89068
:1023B000E936EA36860EE926000EEA2219C0EEFF5B
:1023C0001AC0EDFF00018A71DF5058E0DFCFE6FF51
:1023D000ADC0E6FFAEC0E6FF010EE66E010EE66E92
:1023E000D9EC0BF01B6E050EE15E1B50F3CF19F01C
:1023F000F4CF1AF000019051E96EEA6AD890E936FC
:10240000EA368C0EE926000EEA2219C0EEFF1AC049
:10241000EDFF0001907100019051E96EEA6AD890D9
:10242000E936EA368C0EE926000EEA22EE50ED106F
:1024300002E1000E13D000019051E96EEA6AD890D3
:10244000E936EA368C0EE926000EEA22EE50EFCF8E
:10245000EAFFE96EEF50800B01E0010E000901E098
:10246000DAD700019051200DF3CFADF0F4CFAEF0EC
:10247000300E0001AD27020E0001AE23020EE15C1A
:1024800002E2E16AE552E16EE552E7CFD9FF1200C0
:10249000DACFE4FFE2CFDAFFE9CFE4FFEACFE4FFEF
:1024A000F6CFE4FFF7CFE4FFF5CFE4FFF3CFE4FF8F
:1024B000F4CFE4FFFACFE4FF00EE00F0100EE804E2
:1024C00003E3EECFE4FFFBD700EE19F0090EE804BA
:1024D00003E3EECFE4FFFBD7E65290EC04F0E552C5
:1024E00000EE21F0090EE80403E3E5CFEDFFFBD792
:1024F00000EE0FF0100EE80403E3E5CFEDFFFBD78D
:10250000E5CFFAFFE5CFF4FFE5CFF3FFE5CFF5FF29
:10251000E5CFF7FFE5CFF6FFE5CFEAFFE5CFE9FF2F
:10252000E5CFDAFF1100D8CFE4FFE0CFE4FFE46E9F
:10253000DACFE4FFE2CFDAFFE9CFE4FFEACFE4FF4E
:10254000F6CFE4FFF7CFE4FFF5CFE4FFF3CFE4FFEE
:10255000F4CFE4FFFACFE4FF00EE00F0100EE80441
:1025600003E3EECFE4FFFBD700EE19F0090EE80419
:1025700003E3EECFE4FFFBD7E652B4EC15F0E552EF
:1025800000EE21F0090EE80403E3E5CFEDFFFBD7F1
:1025900000EE0FF0100EE80403E3E5CFEDFFFBD7EC
:1025A000E5CFFAFFE5CFF4FFE5CFF3FFE5CFF5FF89
:1025B000E5CFF7FFE5CFF6FFE5CFEAFFE5CFE9FF8F
:1025C000E5CFDAFFE550E5CFE0FFE5CFD8FF10001B
:1025D00006D8BAEC0CF03BEC10F0FDD71200E7EC9B
:1025E0000FF022EF04F0120012001200120012008D
:1025F000120064840001080EAF6F070EB06FAF07C2
:10260000000EB05BAF51B011FAE164941200D9CF63
:10261000E6FFE1CFD9FFFD0EDBCF06F0FE0EDBCFEC
:1026200007F0720E061801E1075034E0E86806185A
:1026300002E17F0E07182CE0740E061801E1075026
:1026400025E0750E061801E107501EE0730E06180E
:1026500001E1075017E0030E061801E1075010E0F2
:10266000020E061801E1075009E0010E061801E10B
:10267000075001E011D003EC10F00FD0B9DF0DD0FE
:10268000B6DF0BD0B2DF09D0AEDF07D0ADDF05D0AB
:10269000ADDF03D0000001D000D0010E00D0E55224
:0626A000E7CFD9FF120094
:0A26A600D9CFE6FFE1CFD9FF040E03
:1026B000E126FB0EDBCF04F0FC0EDBCF05F0FD0EB8
:1026C000DBCF06F0FE0EDBCF07F00C0E096E0A6AB8
:1026D0000B6A0C6A3EEC15F000C0DEFF01C0DEFFA5
:1026E00002C0DEFF03C0DDFFDD52DD52D9CFE9FFBE
:1026F000DACFEAFF0A0EEE5C000EEE58000EEE583E
:10270000000EEE5801E2C2D0D9CFE9FFDACFEAFFDE
:10271000F60EEE5C000EEE58000EEE58000EEE586F
:1027200019E2D9CFE9FFDACFEAFFEECF04F0EECF1E
:1027300005F0EECF06F0EFCF07F00A0E096E0A6A39
:102740000B6A0C6AD2EC15F00450E66EA4EC16F09D
:10275000E5529CD0D9CFE9FFDACFEAFF9C0EEE5CC0
:10276000000EEE58000EEE58000EEE5819E2D9CFCA
:10277000E9FFDACFEAFFEECF04F0EECF05F0EECFBF
:1027800006F0EFCF07F0640E096E0A6A0B6A0C6A56
:10279000D2EC15F00450E66E96EC16F0E55276D0C9
:1027A000D9CFE9FFDACFEAFF180EEE5CE40EEE585F
:1027B000000EEE58000EEE581AE2D9CFE9FFDACF3C
:1027C000EAFFEECF04F0EECF05F0EECF06F0EFCF4C
:1027D00007F0E80E096E030E0A6E0B6A0C6AD2EC63
:1027E00015F00450E66E58EC16F0E5524FD0D9CFF4
:1027F000E9FFDACFEAFFD880100EEE54270EEE5430
:10280000000EEE54000EEE5411E2010EE66E14ECD2
:1028100016F0E552D9CFE9FFDACFEAFF100EEE5EEF
:10282000270EEE5A000EEE5AEE5AE1D7D9CFE9FF45
:10283000DACFEAFFEECF19F0EECF1AF0EECF1BF0B1
:10284000EFCF1CF00C0E096E0A6A0B6A0C6A19C0F5
:1028500004F01AC005F01BC006F01CC007F0D2EC53
:1028600015F004C019F005C01AF006C01BF007C02F
:102870001CF019C0E6FF1AC0E6FF1BC0E6FF1CC033
:10288000E6FF11DFE552E552E552E552040EE15C48
:1028900002E2E16AE552E16EE552E7CFD9FF1200AC
:1028A0001201000200000008D8048CFF00010102A0
:1028B0000001090220000101008032090400000229
:1028C000FFFFFF000705010220000107058102202C
:1028D0000001040309044A035800200045006E006B
:1028E000670069006E0065006500720069006E0097
:1028F0006700200053006F006600740077006100DD
:1029000072006500200053007900730074006500B8
:102910006D007300200043006F00720070002E00F5
:102920003C03580075004C00410020002D002000A1
:10293000580045005300530020004D00690063001B
:1029400072006F0020004C006F0067006900630098
:10295000200041007200720061007900B228D22884
:04296000D62820292C
:0C2964002A0EF66E080EF76E000EF86EDC
:1029700000010900F550966F0900F550976F03E1CB
:10298000966701D03DD00900F550916F0900F550D0
:10299000926F0900F550936F09000900F550E96E38
:1029A0000900F550EA6E090009000900F550946F1E
:1029B0000900F550956F09000900F6CF98F0F7CFA0
:1029C00099F0F8CF9AF091C0F6FF92C0F7FF93C04C
:1029D000F8FF0001945302E1955307E00900F55018
:1029E000EE6E9407F8E29507F9D798C0F6FF99C004
:1029F000F7FF9AC0F8FF00019607000E975BBFD75C
:022A00001200C2
:0E2A0200FB0EE3CFF6FFFC0EE3CFF7FFFD0E59
:102A1000E3CFF8FFFE0EE3CFE9FFFF0EE3CFEAFFBF
:102A2000E9CFF3FFEACFF4FFF90EE35003E1FA0E2A
:102A3000E35009E0F90EE30602E2FA0EE3060900AC
:102A4000F5CFEEFFF1D71200FE0EE3CFE9FFFF0E48
:102A5000E3CFEAFFE9CFF3FFEACFF4FFFB0EE35049
:102A600003E1FC0EE35009E0FB0EE30602E2FC0E7C
:0C2A7000E306FD0EE350EE6EF1D71200FD
:042A7C0004500902F7
:102A8000F3CF00F0F4CF01F00A02F3500126000E5C
:102A9000F420026E04500B02F3500226000EF420C4
:102AA000036E04500C02F350032605500902F35044
:102AB0000126F4500222000E032205500A02F350B0
:102AC0000226F450032205500B02F3500326065051
:102AD0000902F3500226F450032206500A02F35072
:0C2AE000032607500902F35003261200E1
:042AEC00D9CFE6FF59
:102AF000DACFE6FFE1CFD9FFE2CFDAFF3F0EC7160C
:102B0000C66AFD0EDB50C612FB0EDB50C712FC0E70
:102B1000DB50030A09E0010A04E0020A06E1C78C5F
:102B200004D0C78CC68801D0C688FD0EDB50050ACC
:102B300005E0010A05E1938C948C03D0938C01D0BD
:102B4000939C949E9388C68AE552E5CFDAFFE7CF3F
:042B5000D9FF120097
:0C2B54008B9894980001B16BB16AA292BA
:102B6000A192A082B1801200A1920001B25102E1B3
:102B70000A0EB26FB207B151000805E2B25102E18C
:102B80008B78B1070ED0100E0001E76E6019E8AE29
:102B900002D0E73402D0E750605D02E28B9801D0AA
:042BA0008B8812000C
:0C2BA400036A026A016A006A200EE76EF4
:102BB000D89004360536063607360036013602361A
:102BC00003360950005C0A5001580B5002580C5053
:102BD000035809E30950005E0A50015A0B50025A8B
:0C2BE0000C50035A042AE72EE4D7120020
:042BEC00D9CFE6FF58
:102BF000DACFE6FFE1CFD9FFE2CFDAFFE652C950E4
:102C0000DF6E9E96C69EFD0EDB50C96EC6AE02D02C
:102C1000FF0E03D09EA6FED7000EE552E552E5CF8B
:082C2000DAFFE7CFD9FF120033
:082C2800FF0EE350236EEF0ED6
:102C300001D0F30EE76EE72E1BEF16F00C0E226E9E
:102C4000E76AE72E21EF16F0222E20EF16F0232E52
:062C500019EF16F012005E
:0A2C5600D9CFE6FFDACFE6FFE1CFA9
:102C6000D9FFE2CFDAFFE652C950DF6E9E96C96AFD
:102C70009EA6FED7C950E552E552E5CFDAFFE7CF71
:042C8000D9FF120066
:0C2C8400036A026A100EE76ED890063654
:102C90000736023603360B50025C0C50035805E32E
:102CA0000B50025E0C50035A062AE72EF0D7120092
:102CB000FF0EE350236E480E01D04C0EE76EE72E58
:102CC000FED7E76AE72EFED7232EF7D700001200C3
:102CD000000EF36E00EE00F0030E01D81200EA6061
:102CE00002D0EE6AFCD7F350E9601200EE6AFCD71E
:102CF000000301005875444C000000000000000073
:0F2D0000000000000000000000000000000000C4
:102D100011EE00F021EE00F0F86A0F9CB2EC14F016
:0C2D2000AFEC16F0E8EC12F0FBD712004C
:042D2C00FF0EE35063
:102D3000236E1B0E00D001D0200EE76EE72EFED7CB
:082D4000232EFAD700D0120087
:082D4800FF0EE350E84E1200FB
:0E2D5000000000D000D000D0E82EFAD712000C
:022D5E00120061
:0B2D6000000000000000000000000068
:052D6B00000000000063
:022D7000000061
:020000040030CA
:0100000018E7
:0100010032CC
:010002000EEF
:010003001EDE
:01000500807A
:0100060001F8
:0100080003F4
:01000900C036
:01000A0003F2
:01000B00A054
:01000C0003F0
:01000D0040B2
:00000001FF
